{
  "contractName": "Proxy",
  "abi": [
    {
      "constant": true,
      "inputs": [],
      "name": "_initialized",
      "outputs": [
        {
          "name": "",
          "type": "bool"
        }
      ],
      "payable": false,
      "stateMutability": "view",
      "type": "function"
    },
    {
      "constant": true,
      "inputs": [],
      "name": "owner",
      "outputs": [
        {
          "name": "",
          "type": "address"
        }
      ],
      "payable": false,
      "stateMutability": "view",
      "type": "function"
    },
    {
      "inputs": [
        {
          "name": "_currentAddress",
          "type": "address"
        }
      ],
      "payable": false,
      "stateMutability": "nonpayable",
      "type": "constructor"
    },
    {
      "payable": true,
      "stateMutability": "payable",
      "type": "fallback"
    },
    {
      "constant": false,
      "inputs": [
        {
          "name": "_newAddress",
          "type": "address"
        }
      ],
      "name": "upgrade",
      "outputs": [],
      "payable": false,
      "stateMutability": "nonpayable",
      "type": "function"
    }
  ],
  "bytecode": "0x608060405234801561001057600080fd5b506040516020806103f58339810180604052602081101561003057600080fd5b810190808051906020019092919050505033600560006101000a81548173ffffffffffffffffffffffffffffffffffffffff021916908373ffffffffffffffffffffffffffffffffffffffff16021790555080600660006101000a81548173ffffffffffffffffffffffffffffffffffffffff021916908373ffffffffffffffffffffffffffffffffffffffff16021790555050610322806100d36000396000f3fe608060405260043610610051576000357c0100000000000000000000000000000000000000000000000000000000900480630900f010146101465780633072cf60146101975780638da5cb5b146101c6575b6000600660009054906101000a900473ffffffffffffffffffffffffffffffffffffffff169050600073ffffffffffffffffffffffffffffffffffffffff16600660009054906101000a900473ffffffffffffffffffffffffffffffffffffffff1673ffffffffffffffffffffffffffffffffffffffff16141515156100d657600080fd5b60606000368080601f016020809104026020016040519081016040528093929190818152602001838380828437600081840152601f19601f820116905080830192505050505050509050600080825160208401855af43d604051816000823e8260008114610142578282f35b8282fd5b34801561015257600080fd5b506101956004803603602081101561016957600080fd5b81019080803573ffffffffffffffffffffffffffffffffffffffff16906020019092919050505061021d565b005b3480156101a357600080fd5b506101ac6102bd565b604051808215151515815260200191505060405180910390f35b3480156101d257600080fd5b506101db6102d0565b604051808273ffffffffffffffffffffffffffffffffffffffff1673ffffffffffffffffffffffffffffffffffffffff16815260200191505060405180910390f35b600560009054906101000a900473ffffffffffffffffffffffffffffffffffffffff1673ffffffffffffffffffffffffffffffffffffffff163373ffffffffffffffffffffffffffffffffffffffff1614151561027957600080fd5b80600660006101000a81548173ffffffffffffffffffffffffffffffffffffffff021916908373ffffffffffffffffffffffffffffffffffffffff16021790555050565b600560149054906101000a900460ff1681565b600560009054906101000a900473ffffffffffffffffffffffffffffffffffffffff168156fea165627a7a7230582055636059069d8757302e76741a0aa4fbe618bedc640ba371bcb55fffc0bcfd080029",
  "source": "pragma solidity 0.5.2;\n\nimport \"./Storage.sol\";\n\ncontract Proxy is Storage {\n\n  address currentAddress;\n\n  constructor(address _currentAddress) public {\n    owner = msg.sender;\n    currentAddress = _currentAddress;\n  }\n  function upgrade(address _newAddress) public {\n    require(msg.sender == owner);\n    currentAddress = _newAddress;\n  }\n\n  //FALLBACK FUNCTION.\n//   function () payable external {\n//     address implementation = currentAddress;\n//     require(currentAddress != address(0));\n//     bytes memory data = msg.data;\n\n//     //DELEGATECALL EVERY FUNCTION CALL\n//     //add (data, 0x20) 2 in Hex, so the value is changed to something delegatecall can actually read\n//     //mload memory load function - load data into memory\n//     assembly{\n//         let result := delegatecall(gas(), implementation, add(data, 0x20), mload(data), 0, 0)\n//         let size := returndatasize()\n//         let ptr := mload(\"0x40\") //pointer into the memory of the computer\n//         returndatacopy(ptr, 0, size)\n//         // switch 0 if the result call has failed, 1 if it has been succesfull\n//         switch result\n//         case 0 {revert(ptr, size)}\n//         default {return(ptr, size)}\n//     }\n//   }\n\n//FALLBACK FUNCTION.\n  function () payable external {\n    address implementation = currentAddress;\n    require(currentAddress != address(0));\n    bytes memory data = msg.data;\n\n    //DELEGATECALL EVERY FUNCTION CALL\n    assembly {\n      let result := delegatecall(gas, implementation, add(data, 0x20), mload(data), 0, 0)\n      let size := returndatasize\n      let ptr := mload(0x40)\n      returndatacopy(ptr, 0, size)\n      switch result\n      case 0 {revert(ptr, size)}\n      default {return(ptr, size)}\n    }\n  }\n}",
  "sourcePath": "/Users/Gui/dev/Smart-Contract-Security/Upgradeable-Advanced/contracts/Proxy.sol",
  "compiler": {
    "name": "solc",
    "version": "0.5.2+commit.1df8f40c.Emscripten.clang"
  },
  "schemaVersion": "3.4.0",
  "updatedAt": "2021-05-16T14:18:41.767Z",
  "networkType": "ethereum",
  "devdoc": {
    "methods": {}
  },
  "userdoc": {
    "methods": {}
  }
}