{
  "contractName": "Pausable",
  "abi": [
    {
      "inputs": [],
      "payable": false,
      "stateMutability": "nonpayable",
      "type": "constructor"
    },
    {
      "constant": false,
      "inputs": [],
      "name": "pause",
      "outputs": [],
      "payable": true,
      "stateMutability": "payable",
      "type": "function"
    },
    {
      "constant": false,
      "inputs": [],
      "name": "deposit",
      "outputs": [],
      "payable": true,
      "stateMutability": "payable",
      "type": "function"
    },
    {
      "constant": false,
      "inputs": [],
      "name": "withdrawAll",
      "outputs": [],
      "payable": false,
      "stateMutability": "nonpayable",
      "type": "function"
    }
  ],
  "bytecode": "0x608060405234801561001057600080fd5b5033600160006101000a81548173ffffffffffffffffffffffffffffffffffffffff021916908373ffffffffffffffffffffffffffffffffffffffff1602179055506000600160146101000a81548160ff0219169083151502179055506102b38061007c6000396000f3fe608060405260043610610051576000357c0100000000000000000000000000000000000000000000000000000000900480638456cb5914610056578063853828b614610060578063d0e30db014610077575b600080fd5b61005e610081565b005b34801561006c57600080fd5b50610075610130565b005b61007f61021d565b005b600160009054906101000a900473ffffffffffffffffffffffffffffffffffffffff1673ffffffffffffffffffffffffffffffffffffffff163373ffffffffffffffffffffffffffffffffffffffff161415156100dd57600080fd5b600160149054906101000a900460ff1615156101125760018060146101000a81548160ff02191690831515021790555061012e565b6000600160146101000a81548160ff0219169083151502179055505b565b600160149054906101000a900460ff1615151561014c57600080fd5b60008060003373ffffffffffffffffffffffffffffffffffffffff1673ffffffffffffffffffffffffffffffffffffffff16815260200190815260200160002054905060008060003373ffffffffffffffffffffffffffffffffffffffff1673ffffffffffffffffffffffffffffffffffffffff168152602001908152602001600020819055503373ffffffffffffffffffffffffffffffffffffffff166108fc829081150290604051600060405180830381858888f19350505050158015610219573d6000803e3d6000fd5b5050565b600160149054906101000a900460ff1615151561023957600080fd5b346000803373ffffffffffffffffffffffffffffffffffffffff1673ffffffffffffffffffffffffffffffffffffffff1681526020019081526020016000206000828254019250508190555056fea165627a7a72305820d097506d1e0633817953717e4d93b8a8ae2c691108bb14fd6aba60a357c90daf0029",
  "source": "pragma solidity ^0.5.2;\n\ncontract Pausable {\n    \n    mapping (address => uint256) balances;\n    address owner;\n    \n    bool private _paused;\n    \n    modifier onlyOwner(){\n        require(msg.sender == owner);\n        _;\n    }\n    \n    modifier isNotPaused(){\n        require(!_paused);\n        _;\n    }\n    \n    modifier isPaused(){\n        require(_paused);\n        _;\n    }\n\n    constructor() public {\n        owner = msg.sender;\n        _paused = false;\n    }\n    \n    function pause() public onlyOwner payable {\n        if(!_paused){\n            _paused = true;\n        }\n        else{\n            _paused = false;\n        }\n    }\n    \n    function deposit() public isNotPaused payable{\n        balances[msg.sender] += msg.value;\n    }\n    \n    function withdrawAll() public isNotPaused {\n        uint toWithdraw = balances[msg.sender];\n        balances[msg.sender] = 0;\n        msg.sender.transfer(toWithdraw);\n    }\n}",
  "sourcePath": "/Users/Gui/dev/Smart-Contract-Security/PausableContract/contracts/Pausable.sol",
  "compiler": {
    "name": "solc",
    "version": "0.5.2+commit.1df8f40c.Emscripten.clang"
  },
  "schemaVersion": "3.4.0",
  "updatedAt": "2021-05-17T20:38:34.662Z",
  "devdoc": {
    "methods": {}
  },
  "userdoc": {
    "methods": {}
  }
}