{
  "contractName": "Dogs",
  "abi": [
    {
      "inputs": [],
      "name": "getNumberOfDogs",
      "outputs": [
        {
          "internalType": "uint256",
          "name": "",
          "type": "uint256"
        }
      ],
      "stateMutability": "view",
      "type": "function",
      "constant": true
    },
    {
      "inputs": [
        {
          "internalType": "uint256",
          "name": "toSet",
          "type": "uint256"
        }
      ],
      "name": "setNumberOfDogs",
      "outputs": [],
      "stateMutability": "nonpayable",
      "type": "function"
    }
  ],
  "bytecode": "0x608060405234801561001057600080fd5b506101f3806100206000396000f3fe608060405234801561001057600080fd5b50600436106100365760003560e01c806314861b221461003b5780631680a5ed14610057575b600080fd5b610055600480360381019061005091906100c4565b610075565b005b61005f61008d565b60405161006c91906100fc565b60405180910390f35b61008a6001826100859190610117565b61009c565b50565b60006100976100a6565b905090565b8060008190555050565b60008054905090565b6000813590506100be816101a6565b92915050565b6000602082840312156100d657600080fd5b60006100e4848285016100af565b91505092915050565b6100f68161016d565b82525050565b600060208201905061011160008301846100ed565b92915050565b60006101228261016d565b915061012d8361016d565b9250827fffffffffffffffffffffffffffffffffffffffffffffffffffffffffffffffff0382111561016257610161610177565b5b828201905092915050565b6000819050919050565b7f4e487b7100000000000000000000000000000000000000000000000000000000600052601160045260246000fd5b6101af8161016d565b81146101ba57600080fd5b5056fea264697066735822122021086e505ca263352c38c5071e79c6bc80be859579b1be11ae535a699a1dd9cc64736f6c63430008000033",
  "immutableReferences": {},
  "source": "pragma solidity 0.8.0;\n\nimport \"./Storage.sol\";\n\ncontract Dogs is Storage {\n\n    function getNumberOfDogs() public view returns(uint256) {\n        return Storage.getNumber();\n    }\n\n    function setNumberOfDogs(uint256 toSet) public {\n        return Storage.setNumber(toSet + 1);\n    }\n}",
  "sourcePath": "/Users/Gui/dev/Smart-Contract-Security/SmartContractUpgradeability/contracts/FunctionalContract.sol",
  "compiler": {
    "name": "solc",
    "version": "0.8.0+commit.c7dfd78e.Emscripten.clang"
  },
  "schemaVersion": "3.4.0",
  "updatedAt": "2021-05-16T13:12:40.887Z",
  "networkType": "ethereum",
  "devdoc": {
    "kind": "dev",
    "methods": {},
    "version": 1
  },
  "userdoc": {
    "kind": "user",
    "methods": {},
    "version": 1
  }
}