{
  "contractName": "DogsUpgraded",
  "abi": [
    {
      "inputs": [],
      "name": "getNumberOfDogs",
      "outputs": [
        {
          "internalType": "uint256",
          "name": "",
          "type": "uint256"
        }
      ],
      "stateMutability": "view",
      "type": "function",
      "constant": true
    },
    {
      "inputs": [
        {
          "internalType": "uint256",
          "name": "toSet",
          "type": "uint256"
        }
      ],
      "name": "setNumberOfDogs",
      "outputs": [],
      "stateMutability": "nonpayable",
      "type": "function"
    }
  ],
  "bytecode": "0x608060405234801561001057600080fd5b50610162806100206000396000f3fe608060405234801561001057600080fd5b50600436106100365760003560e01c806314861b221461003b5780631680a5ed14610057575b600080fd5b610055600480360381019061005091906100b8565b610075565b005b61005f610081565b60405161006c91906100f0565b60405180910390f35b61007e81610090565b50565b600061008b61009a565b905090565b8060008190555050565b60008054905090565b6000813590506100b281610115565b92915050565b6000602082840312156100ca57600080fd5b60006100d8848285016100a3565b91505092915050565b6100ea8161010b565b82525050565b600060208201905061010560008301846100e1565b92915050565b6000819050919050565b61011e8161010b565b811461012957600080fd5b5056fea2646970667358221220f31636ad061ec61108d6ee599d64f24ad1a57da21e36409d80a8d8e96cc1908664736f6c63430008000033",
  "immutableReferences": {},
  "source": "pragma solidity 0.8.0;\n\nimport \"./Storage.sol\";\n\ncontract DogsUpgraded is Storage {\n    //this contract intended to fix FunctionalContract which had a bug purposefuly included in it \n\n    function getNumberOfDogs() public view returns(uint256) {\n        return Storage.getNumber();\n    }\n\n    function setNumberOfDogs(uint256 toSet) public {\n        return Storage.setNumber(toSet);\n    }\n}",
  "sourcePath": "/Users/Gui/dev/Smart-Contract-Security/SmartContractUpgradeability/contracts/FunctionalContractUpgrade.sol",
  "compiler": {
    "name": "solc",
    "version": "0.8.0+commit.c7dfd78e.Emscripten.clang"
  },
  "schemaVersion": "3.4.0",
  "updatedAt": "2021-05-16T13:12:40.350Z",
  "networkType": "ethereum",
  "devdoc": {
    "kind": "dev",
    "methods": {},
    "version": 1
  },
  "userdoc": {
    "kind": "user",
    "methods": {},
    "version": 1
  }
}