{
  "contractName": "ProxyDog",
  "abi": [
    {
      "inputs": [
        {
          "internalType": "address",
          "name": "_currentAddress",
          "type": "address"
        }
      ],
      "stateMutability": "nonpayable",
      "type": "constructor"
    },
    {
      "inputs": [],
      "name": "currentAddress",
      "outputs": [
        {
          "internalType": "address",
          "name": "",
          "type": "address"
        }
      ],
      "stateMutability": "view",
      "type": "function",
      "constant": true
    },
    {
      "inputs": [
        {
          "internalType": "address",
          "name": "_newAddress",
          "type": "address"
        }
      ],
      "name": "upgrade",
      "outputs": [],
      "stateMutability": "nonpayable",
      "type": "function"
    },
    {
      "inputs": [],
      "name": "getNumberOfDogs",
      "outputs": [
        {
          "internalType": "bytes",
          "name": "",
          "type": "bytes"
        }
      ],
      "stateMutability": "nonpayable",
      "type": "function"
    },
    {
      "inputs": [
        {
          "internalType": "uint256",
          "name": "_number",
          "type": "uint256"
        }
      ],
      "name": "setNumberOfDogs",
      "outputs": [
        {
          "internalType": "bytes",
          "name": "",
          "type": "bytes"
        }
      ],
      "stateMutability": "nonpayable",
      "type": "function"
    }
  ],
  "bytecode": "0x608060405234801561001057600080fd5b506040516107093803806107098339818101604052810190610032919061008e565b80600160006101000a81548173ffffffffffffffffffffffffffffffffffffffff021916908373ffffffffffffffffffffffffffffffffffffffff16021790555050610100565b600081519050610088816100e9565b92915050565b6000602082840312156100a057600080fd5b60006100ae84828501610079565b91505092915050565b60006100c2826100c9565b9050919050565b600073ffffffffffffffffffffffffffffffffffffffff82169050919050565b6100f2816100b7565b81146100fd57600080fd5b50565b6105fa8061010f6000396000f3fe608060405234801561001057600080fd5b506004361061004c5760003560e01c80630900f0101461005157806314861b221461006d5780631680a5ed1461009d57806381bf4718146100bb575b600080fd5b61006b6004803603810190610066919061031b565b6100d9565b005b61008760048036038101906100829190610344565b61011d565b604051610094919061048d565b60405180910390f35b6100a56101f6565b6040516100b2919061048d565b60405180910390f35b6100c36102cb565b6040516100d09190610472565b60405180910390f35b80600160006101000a81548173ffffffffffffffffffffffffffffffffffffffff021916908373ffffffffffffffffffffffffffffffffffffffff16021790555050565b60606000600160009054906101000a900473ffffffffffffffffffffffffffffffffffffffff1673ffffffffffffffffffffffffffffffffffffffff167f14861b22581b84cb0aec7ce6ad77d28cfaa82fbfcf1d33e2f9a831f8007b3b158460405160200161018d92919061042f565b6040516020818303038152906040526040516101a9919061045b565b600060405180830381855af49150503d80600081146101e4576040519150601f19603f3d011682016040523d82523d6000602084013e6101e9565b606091505b5091505080915050919050565b60606000600160009054906101000a900473ffffffffffffffffffffffffffffffffffffffff1673ffffffffffffffffffffffffffffffffffffffff167f1680a5eda8da808a7834a50d90bd4c37dac796549ddc8f10834a1ca6f083c2e16040516020016102649190610414565b604051602081830303815290604052604051610280919061045b565b600060405180830381855af49150503d80600081146102bb576040519150601f19603f3d011682016040523d82523d6000602084013e6102c0565b606091505b509150508091505090565b600160009054906101000a900473ffffffffffffffffffffffffffffffffffffffff1681565b60008135905061030081610596565b92915050565b600081359050610315816105ad565b92915050565b60006020828403121561032d57600080fd5b600061033b848285016102f1565b91505092915050565b60006020828403121561035657600080fd5b600061036484828501610306565b91505092915050565b610376816104d6565b82525050565b61038d610388826104e8565b610571565b82525050565b600061039e826104af565b6103a881856104ba565b93506103b881856020860161053e565b6103c181610585565b840191505092915050565b60006103d7826104af565b6103e181856104cb565b93506103f181856020860161053e565b80840191505092915050565b61040e61040982610534565b61057b565b82525050565b6000610420828461037c565b60048201915081905092915050565b600061043b828561037c565b60048201915061044b82846103fd565b6020820191508190509392505050565b600061046782846103cc565b915081905092915050565b6000602082019050610487600083018461036d565b92915050565b600060208201905081810360008301526104a78184610393565b905092915050565b600081519050919050565b600082825260208201905092915050565b600081905092915050565b60006104e182610514565b9050919050565b60007fffffffff0000000000000000000000000000000000000000000000000000000082169050919050565b600073ffffffffffffffffffffffffffffffffffffffff82169050919050565b6000819050919050565b60005b8381101561055c578082015181840152602081019050610541565b8381111561056b576000848401525b50505050565b6000819050919050565b6000819050919050565b6000601f19601f8301169050919050565b61059f816104d6565b81146105aa57600080fd5b50565b6105b681610534565b81146105c157600080fd5b5056fea2646970667358221220c59494ec66e65f3683c5ad040876c043563c66a4aa52d21a64657122ea1803fd64736f6c63430008000033",
  "immutableReferences": {},
  "source": "pragma solidity 0.8.0;\n\nimport \"./Storage.sol\";\ncontract ProxyDog is Storage{\n    address public currentAddress;\n\n    constructor(address _currentAddress) public {\n        currentAddress = _currentAddress;\n    }\n\n    function upgrade(address _newAddress) public {\n        currentAddress = _newAddress;\n    }\n\n    function getNumberOfDogs() public returns (bytes memory){\n        (, bytes memory data) = currentAddress.delegatecall(abi.encodePacked(bytes4(keccak256(\"getNumberOfDogs()\"))));\n        return data;\n    }\n    function setNumberOfDogs(uint256 _number) public returns (bytes memory){\n        (, bytes memory data) = currentAddress.delegatecall(abi.encodePacked(bytes4(keccak256(\"setNumberOfDogs(uint256)\")), _number));\n        return data;\n    }\n}",
  "sourcePath": "/Users/Gui/dev/Smart-Contract-Security/SmartContractUpgradeability/contracts/ProxyContract.sol",
  "compiler": {
    "name": "solc",
    "version": "0.8.0+commit.c7dfd78e.Emscripten.clang"
  },
  "schemaVersion": "3.4.0",
  "updatedAt": "2021-05-16T13:12:40.883Z",
  "networkType": "ethereum",
  "devdoc": {
    "kind": "dev",
    "methods": {},
    "version": 1
  },
  "userdoc": {
    "kind": "user",
    "methods": {},
    "version": 1
  }
}