{
  "contractName": "Proxyv2",
  "abi": [
    {
      "inputs": [
        {
          "internalType": "address",
          "name": "_currentAddress",
          "type": "address"
        }
      ],
      "stateMutability": "nonpayable",
      "type": "constructor"
    },
    {
      "stateMutability": "payable",
      "type": "fallback"
    },
    {
      "inputs": [],
      "name": "_initialized",
      "outputs": [
        {
          "internalType": "bool",
          "name": "",
          "type": "bool"
        }
      ],
      "stateMutability": "view",
      "type": "function"
    },
    {
      "inputs": [],
      "name": "currentAddress",
      "outputs": [
        {
          "internalType": "address",
          "name": "",
          "type": "address"
        }
      ],
      "stateMutability": "view",
      "type": "function"
    },
    {
      "inputs": [],
      "name": "owner",
      "outputs": [
        {
          "internalType": "address",
          "name": "",
          "type": "address"
        }
      ],
      "stateMutability": "view",
      "type": "function"
    },
    {
      "inputs": [
        {
          "internalType": "address",
          "name": "_newAddress",
          "type": "address"
        }
      ],
      "name": "upgrade",
      "outputs": [],
      "stateMutability": "nonpayable",
      "type": "function"
    }
  ],
  "bytecode": "0x608060405234801561001057600080fd5b506040516104ce3803806104ce8339818101604052810190610032919061008e565b80600660006101000a81548173ffffffffffffffffffffffffffffffffffffffff021916908373ffffffffffffffffffffffffffffffffffffffff16021790555050610100565b600081519050610088816100e9565b92915050565b6000602082840312156100a057600080fd5b60006100ae84828501610079565b91505092915050565b60006100c2826100c9565b9050919050565b600073ffffffffffffffffffffffffffffffffffffffff82169050919050565b6100f2816100b7565b81146100fd57600080fd5b50565b6103bf8061010f6000396000f3fe6080604052600436106100435760003560e01c80630900f010146101555780633072cf601461017e57806381bf4718146101a95780638da5cb5b146101d457610044565b5b6000600660009054906101000a900473ffffffffffffffffffffffffffffffffffffffff169050600073ffffffffffffffffffffffffffffffffffffffff16600660009054906101000a900473ffffffffffffffffffffffffffffffffffffffff1673ffffffffffffffffffffffffffffffffffffffff1614156100c757600080fd5b600080368080601f016020809104026020016040519081016040528093929190818152602001838380828437600081840152601f19601f820116905080830192505050505050509050600080825160208401855af43d7f307834300000000000000000000000000000000000000000000000000000000051816000823e8260008114610151578282f35b8282fd5b34801561016157600080fd5b5061017c600480360381019061017791906102b7565b6101ff565b005b34801561018a57600080fd5b50610193610243565b6040516101a09190610319565b60405180910390f35b3480156101b557600080fd5b506101be610256565b6040516101cb91906102fe565b60405180910390f35b3480156101e057600080fd5b506101e961027c565b6040516101f691906102fe565b60405180910390f35b80600660006101000a81548173ffffffffffffffffffffffffffffffffffffffff021916908373ffffffffffffffffffffffffffffffffffffffff16021790555050565b600560149054906101000a900460ff1681565b600660009054906101000a900473ffffffffffffffffffffffffffffffffffffffff1681565b600560009054906101000a900473ffffffffffffffffffffffffffffffffffffffff1681565b6000813590506102b181610372565b92915050565b6000602082840312156102c957600080fd5b60006102d7848285016102a2565b91505092915050565b6102e981610334565b82525050565b6102f881610346565b82525050565b600060208201905061031360008301846102e0565b92915050565b600060208201905061032e60008301846102ef565b92915050565b600061033f82610352565b9050919050565b60008115159050919050565b600073ffffffffffffffffffffffffffffffffffffffff82169050919050565b61037b81610334565b811461038657600080fd5b5056fea2646970667358221220a3409df8e72cb100a6a75c6f78ec9fb669e926fe73b0ddbb68b4ce5c773b2d0164736f6c63430008000033",
  "immutableReferences": {},
  "source": "pragma solidity 0.8.0;\n\nimport \"./Storagev2.sol\";\ncontract Proxyv2 is Storagev2{\n    address public currentAddress;\n\n    constructor(address _currentAddress) public {\n        currentAddress = _currentAddress;\n    }\n\n    function upgrade(address _newAddress) public {\n        currentAddress = _newAddress;\n    }\n\n    fallback () payable external {\n        address implementation = currentAddress;\n        require(currentAddress != address(0));\n        bytes memory data = msg.data;\n\n        assembly {\n            //add (data, 0x20) 2 in Hex, so the value is changed to something delegatecall can actually read\n            //mload memory load function - load data into memory\n            let result := delegatecall(gas(), implementation, add(data, 0x20), mload(data), 0, 0)\n            let size := returndatasize()\n            let ptr := mload(\"0x40\") //pointer into the memory of the computer\n            returndatacopy(ptr, 0, size)\n            // switch 0 if the result call has failed, 1 if it has been succesfull\n            switch result\n            case 0 {revert(ptr, size)}\n            default {return(ptr, size)}\n            \n        }\n    }\n}",
  "sourcePath": "/Users/Gui/dev/Smart-Contract-Security/SmartContractUpgradeability/contracts/Proxyv2.sol",
  "compiler": {
    "name": "solc",
    "version": "0.8.0+commit.c7dfd78e.Emscripten.clang"
  },
  "schemaVersion": "3.4.0",
  "updatedAt": "2021-05-16T12:54:03.735Z",
  "devdoc": {
    "kind": "dev",
    "methods": {},
    "version": 1
  },
  "userdoc": {
    "kind": "user",
    "methods": {},
    "version": 1
  }
}