{
  "contractName": "Storagev2",
  "abi": [
    {
      "inputs": [],
      "name": "_initialized",
      "outputs": [
        {
          "internalType": "bool",
          "name": "",
          "type": "bool"
        }
      ],
      "stateMutability": "view",
      "type": "function",
      "constant": true
    },
    {
      "inputs": [],
      "name": "owner",
      "outputs": [
        {
          "internalType": "address",
          "name": "",
          "type": "address"
        }
      ],
      "stateMutability": "view",
      "type": "function",
      "constant": true
    }
  ],
  "bytecode": "0x608060405234801561001057600080fd5b50610178806100206000396000f3fe608060405234801561001057600080fd5b50600436106100365760003560e01c80633072cf601461003b5780638da5cb5b14610059575b600080fd5b610043610077565b60405161005091906100e9565b60405180910390f35b61006161008a565b60405161006e91906100ce565b60405180910390f35b600560149054906101000a900460ff1681565b600560009054906101000a900473ffffffffffffffffffffffffffffffffffffffff1681565b6100b981610104565b82525050565b6100c881610116565b82525050565b60006020820190506100e360008301846100b0565b92915050565b60006020820190506100fe60008301846100bf565b92915050565b600061010f82610122565b9050919050565b60008115159050919050565b600073ffffffffffffffffffffffffffffffffffffffff8216905091905056fea26469706673582212202661c805aa01157ec4afec8982579af9f7f9186eeb9fe1de766540cb40127fbe64736f6c63430008000033",
  "immutableReferences": {},
  "source": "\n\npragma solidity 0.8.0;\n\ncontract Storagev2 {\n    //contract will hold the storage of the functional contract\n    mapping (string => uint256 ) _uintStorage;\n    mapping (string => address ) _addressStorage;\n    mapping (string => bool ) _boolStorage;\n    mapping (string => uint256 ) _stringStorage;\n    mapping (string => bytes4 ) _bytesStorage;\n    address public owner;\n    bool public _initialized;\n}",
  "sourcePath": "/Users/Gui/dev/Smart-Contract-Security/SmartContractUpgradeability/contracts/Storagev2.sol",
  "compiler": {
    "name": "solc",
    "version": "0.8.0+commit.c7dfd78e.Emscripten.clang"
  },
  "schemaVersion": "3.4.0",
  "updatedAt": "2021-05-16T13:12:41.562Z",
  "networkType": "ethereum",
  "devdoc": {
    "kind": "dev",
    "methods": {},
    "version": 1
  },
  "userdoc": {
    "kind": "user",
    "methods": {},
    "version": 1
  }
}